{
  "_format": "hh-sol-artifact-1",
  "contractName": "Raffle",
  "sourceName": "contracts/Raffle.sol",
  "abi": [
    {
      "inputs": [
        {
          "internalType": "address",
          "name": "vrfCoordinatorV2",
          "type": "address"
        },
        {
          "internalType": "uint64",
          "name": "subscriptionId",
          "type": "uint64"
        },
        {
          "internalType": "bytes32",
          "name": "gasLane",
          "type": "bytes32"
        },
        {
          "internalType": "uint256",
          "name": "interval",
          "type": "uint256"
        },
        {
          "internalType": "uint256",
          "name": "entranceFee",
          "type": "uint256"
        },
        {
          "internalType": "uint32",
          "name": "callbackGasLimit",
          "type": "uint32"
        }
      ],
      "stateMutability": "nonpayable",
      "type": "constructor"
    },
    {
      "inputs": [
        {
          "internalType": "address",
          "name": "have",
          "type": "address"
        },
        {
          "internalType": "address",
          "name": "want",
          "type": "address"
        }
      ],
      "name": "OnlyCoordinatorCanFulfill",
      "type": "error"
    },
    {
      "inputs": [],
      "name": "OnlySimulatedBackend",
      "type": "error"
    },
    {
      "inputs": [],
      "name": "Raffle_NotEnoughETHEntered",
      "type": "error"
    },
    {
      "inputs": [],
      "name": "Raffle__NotOpen",
      "type": "error"
    },
    {
      "inputs": [],
      "name": "Raffle__TransferFailed",
      "type": "error"
    },
    {
      "inputs": [
        {
          "internalType": "uint256",
          "name": "currentBalance",
          "type": "uint256"
        },
        {
          "internalType": "uint256",
          "name": "players",
          "type": "uint256"
        },
        {
          "internalType": "uint256",
          "name": "raffleState",
          "type": "uint256"
        }
      ],
      "name": "Raffle__UpkeepNotNeeded",
      "type": "error"
    },
    {
      "anonymous": false,
      "inputs": [
        {
          "indexed": true,
          "internalType": "address",
          "name": "players",
          "type": "address"
        }
      ],
      "name": "RaffleEnter",
      "type": "event"
    },
    {
      "anonymous": false,
      "inputs": [
        {
          "indexed": true,
          "internalType": "uint256",
          "name": "requestedId",
          "type": "uint256"
        }
      ],
      "name": "RequestedRaffleWinner",
      "type": "event"
    },
    {
      "anonymous": false,
      "inputs": [
        {
          "indexed": true,
          "internalType": "address",
          "name": "winner",
          "type": "address"
        }
      ],
      "name": "WinnerPicked",
      "type": "event"
    },
    {
      "inputs": [
        {
          "internalType": "bytes",
          "name": "",
          "type": "bytes"
        }
      ],
      "name": "checkUpkeep",
      "outputs": [
        {
          "internalType": "bool",
          "name": "upkeepNeeded",
          "type": "bool"
        },
        {
          "internalType": "bytes",
          "name": "",
          "type": "bytes"
        }
      ],
      "stateMutability": "nonpayable",
      "type": "function"
    },
    {
      "inputs": [],
      "name": "enterRaffle",
      "outputs": [],
      "stateMutability": "payable",
      "type": "function"
    },
    {
      "inputs": [],
      "name": "getEntranceFee",
      "outputs": [
        {
          "internalType": "uint256",
          "name": "",
          "type": "uint256"
        }
      ],
      "stateMutability": "view",
      "type": "function"
    },
    {
      "inputs": [],
      "name": "getLatestTimeStamp",
      "outputs": [
        {
          "internalType": "uint256",
          "name": "",
          "type": "uint256"
        }
      ],
      "stateMutability": "view",
      "type": "function"
    },
    {
      "inputs": [],
      "name": "getName",
      "outputs": [
        {
          "internalType": "uint256",
          "name": "",
          "type": "uint256"
        }
      ],
      "stateMutability": "pure",
      "type": "function"
    },
    {
      "inputs": [],
      "name": "getNumWords",
      "outputs": [
        {
          "internalType": "uint256",
          "name": "",
          "type": "uint256"
        }
      ],
      "stateMutability": "pure",
      "type": "function"
    },
    {
      "inputs": [],
      "name": "getNumberOfPlayers",
      "outputs": [
        {
          "internalType": "uint256",
          "name": "",
          "type": "uint256"
        }
      ],
      "stateMutability": "view",
      "type": "function"
    },
    {
      "inputs": [
        {
          "internalType": "uint256",
          "name": "index",
          "type": "uint256"
        }
      ],
      "name": "getPlayer",
      "outputs": [
        {
          "internalType": "address",
          "name": "",
          "type": "address"
        }
      ],
      "stateMutability": "view",
      "type": "function"
    },
    {
      "inputs": [],
      "name": "getRaffleState",
      "outputs": [
        {
          "internalType": "enum Raffle.RaffleState",
          "name": "",
          "type": "uint8"
        }
      ],
      "stateMutability": "view",
      "type": "function"
    },
    {
      "inputs": [],
      "name": "getRequestConfirmations",
      "outputs": [
        {
          "internalType": "uint256",
          "name": "",
          "type": "uint256"
        }
      ],
      "stateMutability": "pure",
      "type": "function"
    },
    {
      "inputs": [],
      "name": "getWinner",
      "outputs": [
        {
          "internalType": "address",
          "name": "",
          "type": "address"
        }
      ],
      "stateMutability": "view",
      "type": "function"
    },
    {
      "inputs": [
        {
          "internalType": "bytes",
          "name": "",
          "type": "bytes"
        }
      ],
      "name": "performUpkeep",
      "outputs": [],
      "stateMutability": "nonpayable",
      "type": "function"
    },
    {
      "inputs": [
        {
          "internalType": "uint256",
          "name": "requestId",
          "type": "uint256"
        },
        {
          "internalType": "uint256[]",
          "name": "randomWords",
          "type": "uint256[]"
        }
      ],
      "name": "rawFulfillRandomWords",
      "outputs": [],
      "stateMutability": "nonpayable",
      "type": "function"
    }
  ],
  "bytecode": "0x6101606040523480156200001257600080fd5b506040516200168a3803806200168a833981810160405281019062000038919062000293565b858073ffffffffffffffffffffffffffffffffffffffff1660808173ffffffffffffffffffffffffffffffffffffffff1681525050508160a081815250508573ffffffffffffffffffffffffffffffffffffffff1660c08173ffffffffffffffffffffffffffffffffffffffff16815250508360e081815250508467ffffffffffffffff166101008167ffffffffffffffff16815250508063ffffffff166101208163ffffffff168152505060008060146101000a81548160ff021916908360018111156200010c576200010b6200032f565b5b0217905550426002819055508261014081815250505050505050506200035e565b600080fd5b600073ffffffffffffffffffffffffffffffffffffffff82169050919050565b60006200015f8262000132565b9050919050565b620001718162000152565b81146200017d57600080fd5b50565b600081519050620001918162000166565b92915050565b600067ffffffffffffffff82169050919050565b620001b68162000197565b8114620001c257600080fd5b50565b600081519050620001d681620001ab565b92915050565b6000819050919050565b620001f181620001dc565b8114620001fd57600080fd5b50565b6000815190506200021181620001e6565b92915050565b6000819050919050565b6200022c8162000217565b81146200023857600080fd5b50565b6000815190506200024c8162000221565b92915050565b600063ffffffff82169050919050565b6200026d8162000252565b81146200027957600080fd5b50565b6000815190506200028d8162000262565b92915050565b60008060008060008060c08789031215620002b357620002b26200012d565b5b6000620002c389828a0162000180565b9650506020620002d689828a01620001c5565b9550506040620002e989828a0162000200565b9450506060620002fc89828a016200023b565b93505060806200030f89828a016200023b565b92505060a06200032289828a016200027c565b9150509295509295509295565b7f4e487b7100000000000000000000000000000000000000000000000000000000600052602160045260246000fd5b60805160a05160c05160e0516101005161012051610140516112c3620003c760003960006107ca015260006106880152600061066501526000610644015260006106080152600081816102fa0152610404015260008181610344015261039801526112c36000f3fe6080604052600436106100c25760003560e01c80634585e33b1161007f5780636e04ff0d116100595780636e04ff0d146102255780638e7ea5b214610263578063e55ae4e81461028e578063fd6673f5146102cb576100c2565b80634585e33b146101a657806353a2c19a146101cf5780635f1b0fd8146101fa576100c2565b806309bc33a7146100c7578063115cbaf5146100f257806317d7de7c1461011d5780631fe543e3146101485780632cfcc53914610171578063320229eb1461017b575b600080fd5b3480156100d357600080fd5b506100dc6102f6565b6040516100e99190610aad565b60405180910390f35b3480156100fe57600080fd5b5061010761031e565b6040516101149190610b3f565b60405180910390f35b34801561012957600080fd5b50610132610334565b60405161013f9190610aad565b60405180910390f35b34801561015457600080fd5b5061016f600480360381019061016a9190610cf3565b610342565b005b610179610402565b005b34801561018757600080fd5b50610190610571565b60405161019d9190610aad565b60405180910390f35b3480156101b257600080fd5b506101cd60048036038101906101c89190610daa565b61057b565b005b3480156101db57600080fd5b506101e461076c565b6040516101f19190610aad565b60405180910390f35b34801561020657600080fd5b5061020f61077b565b60405161021c9190610aad565b60405180910390f35b34801561023157600080fd5b5061024c60048036038101906102479190610eac565b610788565b60405161025a929190610f8f565b60405180910390f35b34801561026f57600080fd5b50610278610834565b6040516102859190611000565b60405180910390f35b34801561029a57600080fd5b506102b560048036038101906102b0919061101b565b61085d565b6040516102c29190611000565b60405180910390f35b3480156102d757600080fd5b506102e06108a5565b6040516102ed9190610aad565b60405180910390f35b60007f0000000000000000000000000000000000000000000000000000000000000000905090565b60008060149054906101000a900460ff16905090565b600080600190508091505090565b7f000000000000000000000000000000000000000000000000000000000000000073ffffffffffffffffffffffffffffffffffffffff163373ffffffffffffffffffffffffffffffffffffffff16146103f457337f00000000000000000000000000000000000000000000000000000000000000006040517f1cf993f40000000000000000000000000000000000000000000000000000000081526004016103eb929190611048565b60405180910390fd5b6103fe82826108b2565b5050565b7f000000000000000000000000000000000000000000000000000000000000000034101561045c576040517f74938f2700000000000000000000000000000000000000000000000000000000815260040160405180910390fd5b600060018111156104705761046f610ac8565b5b600060149054906101000a900460ff16600181111561049257610491610ac8565b5b146104c9576040517f1425571c00000000000000000000000000000000000000000000000000000000815260040160405180910390fd5b6001339080600181540180825580915050600190039060005260206000200160009091909190916101000a81548173ffffffffffffffffffffffffffffffffffffffff021916908373ffffffffffffffffffffffffffffffffffffffff1602179055503373ffffffffffffffffffffffffffffffffffffffff167f0805e1d667bddb8a95f0f09880cf94f403fb596ce79928d9f29b74203ba284d460405160405180910390a2565b6000600254905090565b600061059560405180602001604052806000815250610788565b509050806106045747600180549050600060149054906101000a900460ff1660018111156105c6576105c5610ac8565b5b6040517f584327aa0000000000000000000000000000000000000000000000000000000081526004016105fb93929190611071565b60405180910390fd5b60007f000000000000000000000000000000000000000000000000000000000000000073ffffffffffffffffffffffffffffffffffffffff16635d3b1d307f00000000000000000000000000000000000000000000000000000000000000007f000000000000000000000000000000000000000000000000000000000000000060037f000000000000000000000000000000000000000000000000000000000000000060026040518663ffffffff1660e01b81526004016106c9959493929190611120565b6020604051808303816000875af11580156106e8573d6000803e3d6000fd5b505050506040513d601f19601f8201168201806040525081019061070c9190611188565b90506001600060146101000a81548160ff0219169083600181111561073457610733610ac8565b5b0217905550807fcd6e45c8998311cab7e9d4385596cac867e20a0587194b954fa3a731c93ce78b60405160405180910390a250505050565b6000600263ffffffff16905090565b6000600361ffff16905090565b6000606060008060018111156107a1576107a0610ac8565b5b600060149054906101000a900460ff1660018111156107c3576107c2610ac8565b5b14905060007f0000000000000000000000000000000000000000000000000000000000000000600254426107f791906111e4565b119050600080600180549050119050600080471190508380156108175750825b80156108205750815b80156108295750805b955050505050915091565b60008060009054906101000a900473ffffffffffffffffffffffffffffffffffffffff16905090565b60006001828154811061087357610872611218565b5b9060005260206000200160009054906101000a900473ffffffffffffffffffffffffffffffffffffffff169050919050565b6000600180549050905090565b6000600180549050826000815181106108ce576108cd611218565b5b60200260200101511690506000600182815481106108ef576108ee611218565b5b9060005260206000200160009054906101000a900473ffffffffffffffffffffffffffffffffffffffff169050806000806101000a81548173ffffffffffffffffffffffffffffffffffffffff021916908373ffffffffffffffffffffffffffffffffffffffff16021790555060008060146101000a81548160ff0219169083600181111561098157610980610ac8565b5b021790555060008060009054906101000a900473ffffffffffffffffffffffffffffffffffffffff1673ffffffffffffffffffffffffffffffffffffffff16476040516109cd90611278565b60006040518083038185875af1925050503d8060008114610a0a576040519150601f19603f3d011682016040523d82523d6000602084013e610a0f565b606091505b5050905080610a4a576040517fa1d04b3900000000000000000000000000000000000000000000000000000000815260040160405180910390fd5b8173ffffffffffffffffffffffffffffffffffffffff167f5b690ec4a06fe979403046eaeea5b3ce38524683c3001f662c8b5a829632f7df60405160405180910390a25050505050565b6000819050919050565b610aa781610a94565b82525050565b6000602082019050610ac26000830184610a9e565b92915050565b7f4e487b7100000000000000000000000000000000000000000000000000000000600052602160045260246000fd5b60028110610b0857610b07610ac8565b5b50565b6000819050610b1982610af7565b919050565b6000610b2982610b0b565b9050919050565b610b3981610b1e565b82525050565b6000602082019050610b546000830184610b30565b92915050565b6000604051905090565b600080fd5b600080fd5b610b7781610a94565b8114610b8257600080fd5b50565b600081359050610b9481610b6e565b92915050565b600080fd5b6000601f19601f8301169050919050565b7f4e487b7100000000000000000000000000000000000000000000000000000000600052604160045260246000fd5b610be882610b9f565b810181811067ffffffffffffffff82111715610c0757610c06610bb0565b5b80604052505050565b6000610c1a610b5a565b9050610c268282610bdf565b919050565b600067ffffffffffffffff821115610c4657610c45610bb0565b5b602082029050602081019050919050565b600080fd5b6000610c6f610c6a84610c2b565b610c10565b90508083825260208201905060208402830185811115610c9257610c91610c57565b5b835b81811015610cbb5780610ca78882610b85565b845260208401935050602081019050610c94565b5050509392505050565b600082601f830112610cda57610cd9610b9a565b5b8135610cea848260208601610c5c565b91505092915050565b60008060408385031215610d0a57610d09610b64565b5b6000610d1885828601610b85565b925050602083013567ffffffffffffffff811115610d3957610d38610b69565b5b610d4585828601610cc5565b9150509250929050565b600080fd5b60008083601f840112610d6a57610d69610b9a565b5b8235905067ffffffffffffffff811115610d8757610d86610d4f565b5b602083019150836001820283011115610da357610da2610c57565b5b9250929050565b60008060208385031215610dc157610dc0610b64565b5b600083013567ffffffffffffffff811115610ddf57610dde610b69565b5b610deb85828601610d54565b92509250509250929050565b600080fd5b600067ffffffffffffffff821115610e1757610e16610bb0565b5b610e2082610b9f565b9050602081019050919050565b82818337600083830152505050565b6000610e4f610e4a84610dfc565b610c10565b905082815260208101848484011115610e6b57610e6a610df7565b5b610e76848285610e2d565b509392505050565b600082601f830112610e9357610e92610b9a565b5b8135610ea3848260208601610e3c565b91505092915050565b600060208284031215610ec257610ec1610b64565b5b600082013567ffffffffffffffff811115610ee057610edf610b69565b5b610eec84828501610e7e565b91505092915050565b60008115159050919050565b610f0a81610ef5565b82525050565b600081519050919050565b600082825260208201905092915050565b60005b83811015610f4a578082015181840152602081019050610f2f565b60008484015250505050565b6000610f6182610f10565b610f6b8185610f1b565b9350610f7b818560208601610f2c565b610f8481610b9f565b840191505092915050565b6000604082019050610fa46000830185610f01565b8181036020830152610fb68184610f56565b90509392505050565b600073ffffffffffffffffffffffffffffffffffffffff82169050919050565b6000610fea82610fbf565b9050919050565b610ffa81610fdf565b82525050565b60006020820190506110156000830184610ff1565b92915050565b60006020828403121561103157611030610b64565b5b600061103f84828501610b85565b91505092915050565b600060408201905061105d6000830185610ff1565b61106a6020830184610ff1565b9392505050565b60006060820190506110866000830186610a9e565b6110936020830185610a9e565b6110a06040830184610a9e565b949350505050565b6000819050919050565b6110bb816110a8565b82525050565b600067ffffffffffffffff82169050919050565b6110de816110c1565b82525050565b600061ffff82169050919050565b6110fb816110e4565b82525050565b600063ffffffff82169050919050565b61111a81611101565b82525050565b600060a08201905061113560008301886110b2565b61114260208301876110d5565b61114f60408301866110f2565b61115c6060830185611111565b6111696080830184611111565b9695505050505050565b60008151905061118281610b6e565b92915050565b60006020828403121561119e5761119d610b64565b5b60006111ac84828501611173565b91505092915050565b7f4e487b7100000000000000000000000000000000000000000000000000000000600052601160045260246000fd5b60006111ef82610a94565b91506111fa83610a94565b9250828203905081811115611212576112116111b5565b5b92915050565b7f4e487b7100000000000000000000000000000000000000000000000000000000600052603260045260246000fd5b600081905092915050565b50565b6000611262600083611247565b915061126d82611252565b600082019050919050565b600061128382611255565b915081905091905056fea2646970667358221220eba3c7e2c7022499bbea440b160ec94f5096577ea2006795b34547735798b36164736f6c63430008110033",
  "linkReferences": {},
  "deployedLinkReferences": {}
}