{
  "_format": "hh-sol-artifact-1",
  "contractName": "Raffle",
  "sourceName": "contracts/Raffle.sol",
  "abi": [
    {
      "inputs": [
        {
          "internalType": "address",
          "name": "vrfCoordinatorV2",
          "type": "address"
        },
        {
          "internalType": "uint256",
          "name": "entranceFee",
          "type": "uint256"
        },
        {
          "internalType": "bytes32",
          "name": "gasLane",
          "type": "bytes32"
        },
        {
          "internalType": "uint64",
          "name": "subscriptionId",
          "type": "uint64"
        },
        {
          "internalType": "uint32",
          "name": "callbackGasLimit",
          "type": "uint32"
        },
        {
          "internalType": "uint256",
          "name": "interval",
          "type": "uint256"
        }
      ],
      "stateMutability": "nonpayable",
      "type": "constructor"
    },
    {
      "inputs": [
        {
          "internalType": "address",
          "name": "have",
          "type": "address"
        },
        {
          "internalType": "address",
          "name": "want",
          "type": "address"
        }
      ],
      "name": "OnlyCoordinatorCanFulfill",
      "type": "error"
    },
    {
      "inputs": [],
      "name": "OnlySimulatedBackend",
      "type": "error"
    },
    {
      "inputs": [],
      "name": "Raffle_NotEnoughETHEntered",
      "type": "error"
    },
    {
      "inputs": [],
      "name": "Raffle__NotOpen",
      "type": "error"
    },
    {
      "inputs": [],
      "name": "Raffle__TransferFailed",
      "type": "error"
    },
    {
      "inputs": [
        {
          "internalType": "uint256",
          "name": "currentBalance",
          "type": "uint256"
        },
        {
          "internalType": "uint256",
          "name": "players",
          "type": "uint256"
        },
        {
          "internalType": "uint256",
          "name": "raffleState",
          "type": "uint256"
        }
      ],
      "name": "Raffle__UpkeepNotNeeded",
      "type": "error"
    },
    {
      "anonymous": false,
      "inputs": [
        {
          "indexed": true,
          "internalType": "address",
          "name": "players",
          "type": "address"
        }
      ],
      "name": "RaffleEnter",
      "type": "event"
    },
    {
      "anonymous": false,
      "inputs": [
        {
          "indexed": true,
          "internalType": "uint256",
          "name": "requestedId",
          "type": "uint256"
        }
      ],
      "name": "RequestedRaffleWinner",
      "type": "event"
    },
    {
      "anonymous": false,
      "inputs": [
        {
          "indexed": true,
          "internalType": "address",
          "name": "winner",
          "type": "address"
        }
      ],
      "name": "WinnerPicked",
      "type": "event"
    },
    {
      "inputs": [
        {
          "internalType": "bytes",
          "name": "",
          "type": "bytes"
        }
      ],
      "name": "checkUpkeep",
      "outputs": [
        {
          "internalType": "bool",
          "name": "upkeepNeeded",
          "type": "bool"
        },
        {
          "internalType": "bytes",
          "name": "",
          "type": "bytes"
        }
      ],
      "stateMutability": "nonpayable",
      "type": "function"
    },
    {
      "inputs": [],
      "name": "enterRaffle",
      "outputs": [],
      "stateMutability": "payable",
      "type": "function"
    },
    {
      "inputs": [],
      "name": "getEntranceFee",
      "outputs": [
        {
          "internalType": "uint256",
          "name": "",
          "type": "uint256"
        }
      ],
      "stateMutability": "view",
      "type": "function"
    },
    {
      "inputs": [],
      "name": "getLatestTimeStamp",
      "outputs": [
        {
          "internalType": "uint256",
          "name": "",
          "type": "uint256"
        }
      ],
      "stateMutability": "view",
      "type": "function"
    },
    {
      "inputs": [],
      "name": "getName",
      "outputs": [
        {
          "internalType": "uint256",
          "name": "",
          "type": "uint256"
        }
      ],
      "stateMutability": "pure",
      "type": "function"
    },
    {
      "inputs": [],
      "name": "getNumWords",
      "outputs": [
        {
          "internalType": "uint256",
          "name": "",
          "type": "uint256"
        }
      ],
      "stateMutability": "pure",
      "type": "function"
    },
    {
      "inputs": [],
      "name": "getNumberOfPlayers",
      "outputs": [
        {
          "internalType": "uint256",
          "name": "",
          "type": "uint256"
        }
      ],
      "stateMutability": "view",
      "type": "function"
    },
    {
      "inputs": [
        {
          "internalType": "uint256",
          "name": "index",
          "type": "uint256"
        }
      ],
      "name": "getPlayer",
      "outputs": [
        {
          "internalType": "address",
          "name": "",
          "type": "address"
        }
      ],
      "stateMutability": "view",
      "type": "function"
    },
    {
      "inputs": [],
      "name": "getRaffleState",
      "outputs": [
        {
          "internalType": "enum Raffle.RaffleState",
          "name": "",
          "type": "uint8"
        }
      ],
      "stateMutability": "view",
      "type": "function"
    },
    {
      "inputs": [],
      "name": "getRequestConfirmations",
      "outputs": [
        {
          "internalType": "uint256",
          "name": "",
          "type": "uint256"
        }
      ],
      "stateMutability": "pure",
      "type": "function"
    },
    {
      "inputs": [],
      "name": "getWinner",
      "outputs": [
        {
          "internalType": "address",
          "name": "",
          "type": "address"
        }
      ],
      "stateMutability": "view",
      "type": "function"
    },
    {
      "inputs": [
        {
          "internalType": "bytes",
          "name": "",
          "type": "bytes"
        }
      ],
      "name": "performUpkeep",
      "outputs": [],
      "stateMutability": "nonpayable",
      "type": "function"
    },
    {
      "inputs": [
        {
          "internalType": "uint256",
          "name": "requestId",
          "type": "uint256"
        },
        {
          "internalType": "uint256[]",
          "name": "randomWords",
          "type": "uint256[]"
        }
      ],
      "name": "rawFulfillRandomWords",
      "outputs": [],
      "stateMutability": "nonpayable",
      "type": "function"
    }
  ],
  "bytecode": "0x6101606040523480156200001257600080fd5b506040516200168c3803806200168c833981810160405281019062000038919062000294565b858073ffffffffffffffffffffffffffffffffffffffff1660808173ffffffffffffffffffffffffffffffffffffffff1681525050508460a081815250508573ffffffffffffffffffffffffffffffffffffffff1660c08173ffffffffffffffffffffffffffffffffffffffff16815250508360e081815250508267ffffffffffffffff166101008167ffffffffffffffff16815250508163ffffffff166101208163ffffffff16815250506000600260146101000a81548160ff021916908360018111156200010d576200010c62000330565b5b0217905550426001819055508061014081815250505050505050506200035f565b600080fd5b600073ffffffffffffffffffffffffffffffffffffffff82169050919050565b6000620001608262000133565b9050919050565b620001728162000153565b81146200017e57600080fd5b50565b600081519050620001928162000167565b92915050565b6000819050919050565b620001ad8162000198565b8114620001b957600080fd5b50565b600081519050620001cd81620001a2565b92915050565b6000819050919050565b620001e881620001d3565b8114620001f457600080fd5b50565b6000815190506200020881620001dd565b92915050565b600067ffffffffffffffff82169050919050565b6200022d816200020e565b81146200023957600080fd5b50565b6000815190506200024d8162000222565b92915050565b600063ffffffff82169050919050565b6200026e8162000253565b81146200027a57600080fd5b50565b6000815190506200028e8162000263565b92915050565b60008060008060008060c08789031215620002b457620002b36200012e565b5b6000620002c489828a0162000181565b9650506020620002d789828a01620001bc565b9550506040620002ea89828a01620001f7565b9450506060620002fd89828a016200023c565b93505060806200031089828a016200027d565b92505060a06200032389828a01620001bc565b9150509295509295509295565b7f4e487b7100000000000000000000000000000000000000000000000000000000600052602160045260246000fd5b60805160a05160c05160e0516101005161012051610140516112c4620003c860003960006107cb015260006106890152600061066601526000610645015260006106090152600081816102fa0152610405015260008181610345015261039901526112c46000f3fe6080604052600436106100c25760003560e01c80634585e33b1161007f5780636e04ff0d116100595780636e04ff0d146102255780638e7ea5b214610263578063e55ae4e81461028e578063fd6673f5146102cb576100c2565b80634585e33b146101a657806353a2c19a146101cf5780635f1b0fd8146101fa576100c2565b806309bc33a7146100c7578063115cbaf5146100f257806317d7de7c1461011d5780631fe543e3146101485780632cfcc53914610171578063320229eb1461017b575b600080fd5b3480156100d357600080fd5b506100dc6102f6565b6040516100e99190610aae565b60405180910390f35b3480156100fe57600080fd5b5061010761031e565b6040516101149190610b40565b60405180910390f35b34801561012957600080fd5b50610132610335565b60405161013f9190610aae565b60405180910390f35b34801561015457600080fd5b5061016f600480360381019061016a9190610cf4565b610343565b005b610179610403565b005b34801561018757600080fd5b50610190610572565b60405161019d9190610aae565b60405180910390f35b3480156101b257600080fd5b506101cd60048036038101906101c89190610dab565b61057c565b005b3480156101db57600080fd5b506101e461076d565b6040516101f19190610aae565b60405180910390f35b34801561020657600080fd5b5061020f61077c565b60405161021c9190610aae565b60405180910390f35b34801561023157600080fd5b5061024c60048036038101906102479190610ead565b610789565b60405161025a929190610f90565b60405180910390f35b34801561026f57600080fd5b50610278610835565b6040516102859190611001565b60405180910390f35b34801561029a57600080fd5b506102b560048036038101906102b0919061101c565b61085f565b6040516102c29190611001565b60405180910390f35b3480156102d757600080fd5b506102e06108a6565b6040516102ed9190610aae565b60405180910390f35b60007f0000000000000000000000000000000000000000000000000000000000000000905090565b6000600260149054906101000a900460ff16905090565b600080600190508091505090565b7f000000000000000000000000000000000000000000000000000000000000000073ffffffffffffffffffffffffffffffffffffffff163373ffffffffffffffffffffffffffffffffffffffff16146103f557337f00000000000000000000000000000000000000000000000000000000000000006040517f1cf993f40000000000000000000000000000000000000000000000000000000081526004016103ec929190611049565b60405180910390fd5b6103ff82826108b2565b5050565b7f000000000000000000000000000000000000000000000000000000000000000034101561045d576040517f74938f2700000000000000000000000000000000000000000000000000000000815260040160405180910390fd5b6000600181111561047157610470610ac9565b5b600260149054906101000a900460ff16600181111561049357610492610ac9565b5b146104ca576040517f1425571c00000000000000000000000000000000000000000000000000000000815260040160405180910390fd5b6000339080600181540180825580915050600190039060005260206000200160009091909190916101000a81548173ffffffffffffffffffffffffffffffffffffffff021916908373ffffffffffffffffffffffffffffffffffffffff1602179055503373ffffffffffffffffffffffffffffffffffffffff167f0805e1d667bddb8a95f0f09880cf94f403fb596ce79928d9f29b74203ba284d460405160405180910390a2565b6000600154905090565b600061059660405180602001604052806000815250610789565b509050806106055747600080549050600260149054906101000a900460ff1660018111156105c7576105c6610ac9565b5b6040517f584327aa0000000000000000000000000000000000000000000000000000000081526004016105fc93929190611072565b60405180910390fd5b60007f000000000000000000000000000000000000000000000000000000000000000073ffffffffffffffffffffffffffffffffffffffff16635d3b1d307f00000000000000000000000000000000000000000000000000000000000000007f000000000000000000000000000000000000000000000000000000000000000060037f000000000000000000000000000000000000000000000000000000000000000060026040518663ffffffff1660e01b81526004016106ca959493929190611121565b6020604051808303816000875af11580156106e9573d6000803e3d6000fd5b505050506040513d601f19601f8201168201806040525081019061070d9190611189565b90506001600260146101000a81548160ff0219169083600181111561073557610734610ac9565b5b0217905550807fcd6e45c8998311cab7e9d4385596cac867e20a0587194b954fa3a731c93ce78b60405160405180910390a250505050565b6000600263ffffffff16905090565b6000600361ffff16905090565b6000606060008060018111156107a2576107a1610ac9565b5b600260149054906101000a900460ff1660018111156107c4576107c3610ac9565b5b14905060007f0000000000000000000000000000000000000000000000000000000000000000600154426107f891906111e5565b119050600080600080549050119050600080471190508380156108185750825b80156108215750815b801561082a5750805b955050505050915091565b6000600260009054906101000a900473ffffffffffffffffffffffffffffffffffffffff16905090565b600080828154811061087457610873611219565b5b9060005260206000200160009054906101000a900473ffffffffffffffffffffffffffffffffffffffff169050919050565b60008080549050905090565b60008080549050826000815181106108cd576108cc611219565b5b602002602001015116905060008082815481106108ed576108ec611219565b5b9060005260206000200160009054906101000a900473ffffffffffffffffffffffffffffffffffffffff16905080600260006101000a81548173ffffffffffffffffffffffffffffffffffffffff021916908373ffffffffffffffffffffffffffffffffffffffff1602179055506000600260146101000a81548160ff0219169083600181111561098157610980610ac9565b5b02179055506000600260009054906101000a900473ffffffffffffffffffffffffffffffffffffffff1673ffffffffffffffffffffffffffffffffffffffff16476040516109ce90611279565b60006040518083038185875af1925050503d8060008114610a0b576040519150601f19603f3d011682016040523d82523d6000602084013e610a10565b606091505b5050905080610a4b576040517fa1d04b3900000000000000000000000000000000000000000000000000000000815260040160405180910390fd5b8173ffffffffffffffffffffffffffffffffffffffff167f5b690ec4a06fe979403046eaeea5b3ce38524683c3001f662c8b5a829632f7df60405160405180910390a25050505050565b6000819050919050565b610aa881610a95565b82525050565b6000602082019050610ac36000830184610a9f565b92915050565b7f4e487b7100000000000000000000000000000000000000000000000000000000600052602160045260246000fd5b60028110610b0957610b08610ac9565b5b50565b6000819050610b1a82610af8565b919050565b6000610b2a82610b0c565b9050919050565b610b3a81610b1f565b82525050565b6000602082019050610b556000830184610b31565b92915050565b6000604051905090565b600080fd5b600080fd5b610b7881610a95565b8114610b8357600080fd5b50565b600081359050610b9581610b6f565b92915050565b600080fd5b6000601f19601f8301169050919050565b7f4e487b7100000000000000000000000000000000000000000000000000000000600052604160045260246000fd5b610be982610ba0565b810181811067ffffffffffffffff82111715610c0857610c07610bb1565b5b80604052505050565b6000610c1b610b5b565b9050610c278282610be0565b919050565b600067ffffffffffffffff821115610c4757610c46610bb1565b5b602082029050602081019050919050565b600080fd5b6000610c70610c6b84610c2c565b610c11565b90508083825260208201905060208402830185811115610c9357610c92610c58565b5b835b81811015610cbc5780610ca88882610b86565b845260208401935050602081019050610c95565b5050509392505050565b600082601f830112610cdb57610cda610b9b565b5b8135610ceb848260208601610c5d565b91505092915050565b60008060408385031215610d0b57610d0a610b65565b5b6000610d1985828601610b86565b925050602083013567ffffffffffffffff811115610d3a57610d39610b6a565b5b610d4685828601610cc6565b9150509250929050565b600080fd5b60008083601f840112610d6b57610d6a610b9b565b5b8235905067ffffffffffffffff811115610d8857610d87610d50565b5b602083019150836001820283011115610da457610da3610c58565b5b9250929050565b60008060208385031215610dc257610dc1610b65565b5b600083013567ffffffffffffffff811115610de057610ddf610b6a565b5b610dec85828601610d55565b92509250509250929050565b600080fd5b600067ffffffffffffffff821115610e1857610e17610bb1565b5b610e2182610ba0565b9050602081019050919050565b82818337600083830152505050565b6000610e50610e4b84610dfd565b610c11565b905082815260208101848484011115610e6c57610e6b610df8565b5b610e77848285610e2e565b509392505050565b600082601f830112610e9457610e93610b9b565b5b8135610ea4848260208601610e3d565b91505092915050565b600060208284031215610ec357610ec2610b65565b5b600082013567ffffffffffffffff811115610ee157610ee0610b6a565b5b610eed84828501610e7f565b91505092915050565b60008115159050919050565b610f0b81610ef6565b82525050565b600081519050919050565b600082825260208201905092915050565b60005b83811015610f4b578082015181840152602081019050610f30565b60008484015250505050565b6000610f6282610f11565b610f6c8185610f1c565b9350610f7c818560208601610f2d565b610f8581610ba0565b840191505092915050565b6000604082019050610fa56000830185610f02565b8181036020830152610fb78184610f57565b90509392505050565b600073ffffffffffffffffffffffffffffffffffffffff82169050919050565b6000610feb82610fc0565b9050919050565b610ffb81610fe0565b82525050565b60006020820190506110166000830184610ff2565b92915050565b60006020828403121561103257611031610b65565b5b600061104084828501610b86565b91505092915050565b600060408201905061105e6000830185610ff2565b61106b6020830184610ff2565b9392505050565b60006060820190506110876000830186610a9f565b6110946020830185610a9f565b6110a16040830184610a9f565b949350505050565b6000819050919050565b6110bc816110a9565b82525050565b600067ffffffffffffffff82169050919050565b6110df816110c2565b82525050565b600061ffff82169050919050565b6110fc816110e5565b82525050565b600063ffffffff82169050919050565b61111b81611102565b82525050565b600060a08201905061113660008301886110b3565b61114360208301876110d6565b61115060408301866110f3565b61115d6060830185611112565b61116a6080830184611112565b9695505050505050565b60008151905061118381610b6f565b92915050565b60006020828403121561119f5761119e610b65565b5b60006111ad84828501611174565b91505092915050565b7f4e487b7100000000000000000000000000000000000000000000000000000000600052601160045260246000fd5b60006111f082610a95565b91506111fb83610a95565b9250828203905081811115611213576112126111b6565b5b92915050565b7f4e487b7100000000000000000000000000000000000000000000000000000000600052603260045260246000fd5b600081905092915050565b50565b6000611263600083611248565b915061126e82611253565b600082019050919050565b600061128482611256565b915081905091905056fea2646970667358221220b66c20f0b5446d45b47faca39d30ea7bde96feb1ec545035b89cccc435e7cec664736f6c63430008110033",
  "linkReferences": {},
  "deployedLinkReferences": {}
}